:100000000C942A000C9447000C9447000C94470071
:100010000C9447000C9447000C9447000C94470044
:100020000C9447000C9447000C9447000C94B003C8
:100030000C9447000C9447000C9447000C94470024
:100040000C9447000C9447000C9447000C94470014
:100050000C94470011241FBECFE5D8E0DEBFCDBF12
:1000600010E0A0E6B0E0E0E4F9E002C005900D92F7
:10007000A23CB107D9F720E0A2ECB0E001C01D928C
:10008000A83CB207E1F70E946F030C949E040C9405
:1000900000008091C2008F5F883219F08093C20007
:1000A00008951092C2001092C50080E00E94A9033A
:1000B000089563E083E00E941D010E94CE020E9429
:1000C0007E0380E00E948B030E94870380E091E022
:1000D0000E94A50389E490E00E94820308950E9493
:1000E0005C0499E8899F912D112496959695969593
:1000F000292F220F920F292F220F220F920F891BD7
:1001000019F08093C700089581E08093C700089597
:10011000CF9380E00E949D0381E08093C500109200
:10012000C600C0E00FC041E063E083E00E9423010D
:10013000882339F0C11105C09091C6009F5F90934C
:10014000C600C82F8091C500813069F3CF91089512
:100150008091C60081111AC081E00E94960261E080
:1001600084E690E00E9451038AEF0E94300181E012
:100170000E94960261E08FE790E00E94510380E0C8
:1001800091E00E94A5030E948800E2CF803118F11F
:1001900081E00E94960261E088E990E00E945103AC
:1001A0008AEF0E9430018AEF0E9430018AEF0E949C
:1001B00030018AEF0E94300181E00E94960261E0E6
:1001C0008FE790E00E94510380E091E00E94A50338
:1001D0000E948800BDCF08959091C7008091C6000D
:1001E000981309C081E00E94960261E081EB90E0E3
:1001F0000E94510308C081E00E94960261E089EBF1
:1002000090E00E9451038AEF0E9430018AEF0E9421
:1002100030018AEF0E9430018AEF0E943001089578
:10022000CF93DF93EC0181E00E94960261E0CE0162
:100230000E945103DF91CF910895683018F440E097
:100240000E944B010895413021F40E943E02982FF4
:1002500005C00E943E0291E0811190E0892F08952F
:10026000282F30E0A8EEB3E00E94FF0323E030E047
:1002700040E050E00E94DD032115310541055105A4
:1002800049F0215031094109510921153105410534
:100290005105B9F708958130C9F028F0823039F15D
:1002A0008330B1F146C0673008F045C0423008F0F5
:1002B00044C08AB350E09A0102C0220F331F6A95EE
:1002C000E2F7B901682B6ABB81E008956730B8F5A1
:1002D0004230B8F587B350E09A0102C0220F331FB5
:1002E0006A95E2F7B901682B67BB81E00895673032
:1002F00050F5423050F584B350E09A0102C0220F0D
:10030000331F6A95E2F7B901682B64BB81E0089559
:100310006730E8F44230E8F481B350E09A0102C05B
:10032000220F331F6A95E2F7B901682B61BB81E0A8
:1003300008958DEF08958EEF08958FEF08958EEF55
:1003400008958FEF08958EEF08958FEF08958EEF43
:1003500008958FEF0895813041F138F0823009F42B
:1003600044C0833009F461C07FC0673008F07EC0AC
:1003700040FD0EC02BB381E090E0AC0102C0440F01
:10038000551F6A95E2F7BA01609562236BBB089529
:100390002BB381E090E0AC0102C0440F551F6A9579
:1003A000E2F7BA01622B6BBB0895673008F060C0BA
:1003B00040FD0EC028B381E090E0AC0102C0440FC4
:1003C000551F6A95E2F7BA016095622368BB0895EC
:1003D00028B381E090E0AC0102C0440F551F6A953C
:1003E000E2F7BA01622B68BB0895673008F042C09B
:1003F00040FD0EC025B381E090E0AC0102C0440F87
:10040000551F6A95E2F7BA016095622365BB0895AE
:1004100025B381E090E0AC0102C0440F551F6A95FE
:10042000E2F7BA01622B65BB0895673028F540FDFD
:100430000EC022B381E090E0AC0102C0440F551F12
:100440006A95E2F7BA016095622362BB089522B310
:1004500081E090E0AC0102C0440F551F6A95E2F7BD
:10046000BA01622B62BB08958DEF08958EEF089557
:100470008EEF08958EEF08958EEF0895813091F0FC
:1004800028F08230D9F0833029F130C0683080F50F
:1004900029B330E0C90102C0959587956A95E2F7C6
:1004A00081700895683030F526B330E0C90102C08C
:1004B000959587956A95E2F7817008956830E0F424
:1004C00023B330E0C90102C0959587956A95E2F79C
:1004D00081700895683090F420B330E0C90102C003
:1004E000959587956A95E2F7817008958DEF089547
:1004F0008EEF08958EEF08958EEF08958EEF089594
:10050000813041F028F0823039F0833039F008959D
:100510006BBB089568BB089565BB089562BB0895E1
:1005200040E062E080E00E94AB010895CF93C82FC5
:1005300040E060E080E00E94AB0140E061E080E0EC
:100540000E94AB0181E00E94300141E062E080E066
:100550000E94AB0181E00E9430016C2F81E00E947B
:10056000800281E00E9430010E94900281E00E949E
:10057000300141E062E080E00E94AB016C2F6295A7
:10058000607F81E00E94800281E00E9430010E9431
:10059000900281E00E943001CF9108958AE00E948C
:1005A000300141E062E080E00E944B0181E00E9466
:1005B000300141E061E080E00E944B0141E060E0F9
:1005C00080E00E944B0181E00E94300141E067E041
:1005D00081E00E944B0141E066E081E00E944B0116
:1005E00041E065E081E00E944B0141E064E081E090
:1005F0000E944B0182E00E94960281E00E9430013D
:1006000088E20E94960281E00E9430018CE00E9404
:10061000960281E00E94300186E00E94960281E00D
:100620000E94300181E00E9496020895CF93C82F66
:1006300041E060E080E00E94AB0140E061E080E0EA
:100640000E94AB0181E00E94300141E062E080E065
:100650000E94AB0181E00E9430016C2F81E00E947A
:10066000800281E00E9430010E94900281E00E949D
:10067000300141E062E080E00E94AB0181E00E9435
:1006800030016C2F6295607F81E00E94800281E0E2
:100690000E9430010E94900281E00E943001CF91BF
:1006A00008950F931F93CF93DF93EC01062F10E073
:1006B0000BC00E941603802F0E9430011F5F103173
:1006C00019F480EC0E949602FE01E10FF11D808179
:1006D0008111EFCFDF91CF911F910F9108950E946B
:1006E00059008FE790E00E9410010E946F000E9465
:1006F00088000E94A8000E94EC00F3CF8FB78068AA
:100700008FBF08959093C4008093C300089583B76A
:1007100083BF81E00895823070F449B721E030E072
:10072000B90102C0660F771F8A95E2F7CB01842BCF
:1007300089BF81E008958FEF089583B7887F83BFD5
:1007400083B7856083BF81E00895819582BF81E092
:10075000089583B7887F83BF83B783BF81E00895FF
:100760001F920F920FB60F9211242F933F934F9326
:100770005F936F937F938F939F93AF93BF93EF9309
:10078000FF938091C3009091C400892B29F0E091E0
:10079000C300F091C4000995FF91EF91BF91AF9113
:1007A0009F918F917F916F915F914F913F912F9189
:1007B0000F900FBE0F901F901895A1E21A2EAA1B42
:1007C000BB1BFD010DC0AA1FBB1FEE1FFF1FA21701
:1007D000B307E407F50720F0A21BB30BE40BF50BFE
:1007E000661F771F881F991F1A9469F76095709587
:1007F000809590959B01AC01BD01CF010895A29F0A
:10080000B001B39FC001A39F700D811D1124911DE4
:10081000B29F700D811D1124911D08958F929F929A
:10082000AF92BF92CF92DF92EF92FF92CF93DF937E
:10083000EC01688179818A819B816115710581054F
:10084000910521F464E279ED8BE597E02DE133EF3A
:1008500041E050E00E946C0449015A019B01AC0147
:10086000A7EAB1E40E948B046B017C01ACEEB4EF0B
:10087000A50194010E949904C60ED71EE81EF91E18
:10088000F7FE06C081E0C81AD108E10880E8F80A3E
:10089000C882D982EA82FB82C6019F77DF91CF911D
:1008A000FF90EF90DF90CF90BF90AF909F908F9090
:1008B00008950E940E04089580E690E00E940E04C0
:1008C0000895A0E0B0E08093600090936100A09351
:1008D0006200B09363000895052E97FB1EF4009408
:1008E0000E94830457FD07D00E94DD0307FC03D05C
:1008F0004EF40C94830450954095309521953F4FCC
:100900004F4F5F4F089590958095709561957F4FFB
:100910008F4F9F4F08950E94FF03A59F900DB49F96
:10092000900DA49F800D911D11240895B7FF0C9484
:100930008B040E948B04821B930B0895F894FFCFC5
:1009400001000000596F75204469646E27742063AC
:10095000686F6F73652061206E756D6265720050FF
:100960006C656173652047756573732074686520D5
:100970004E756D6265723A005468652076616C69E7
:10098000642072616E67653A203120746F203135C2
:1009900000596F7520576F6E00596F75204C6F733B
:0209A0007400E1
:00000001FF
