S01800004775657373696E675F47616D655630322E7372656336
S11300000C942A000C9447000C9447000C9447006D
S11300100C9447000C9447000C9447000C94470040
S11300200C9447000C9447000C9447000C94430430
S11300300C9447000C9447000C9447000C94470020
S11300400C9447000C9447000C9447000C94470010
S11300500C94470011241FBECFE5D8E0DEBFCDBF0E
S113006010E0A0E6B0E0E2EBFAE002C005900D92E9
S1130070A43DB107D9F720E0A4EDB0E001C01D9282
S1130080AC3DB207E1F70E9434040C9457050C947C
S113009000000E9493030E945E0208950E94EF04F0
S11300A099E8899F912D1124969596959695292FD7
S11300B0220F920F292F220F220F920F891B19F062
S11300C08093DB00089581E08093DB00089588ED40
S11300D090E00E94FF048093D7008091D7008111A3
S11300E016C081E00E945B0361E084E790E00E9417
S11300F016048AEF0E94FE0081E00E945B0361E027
S11301008FE890E00E9416040E94A900E6CF803197
S1130110F8F081E00E945B0361E088EA90E00E94CD
S113012016048AEF0E94FE008AEF0E94FE008AEF06
S11301300E94FE008AEF0E94FE0081E00E945B03A1
S113014061E08FE890E00E9416040E94A900C5CFE8
S113015008951F93CF93DF931092D8001092D90083
S11301601092DA00C0E0D0E010E001C0182F0E9425
S1130170AF028117E1F38823C9F38D3319F40E9488
S1130180670007C0FE01E852FF4F80832196182FB5
S1130190EECFDF91CF911F9108959091DB00809174
S11301A0D700981309C081E00E945B0361E083ECEF
S11301B090E00E94160408C081E00E945B0361E0A5
S11301C08BEC90E00E9416048AEF0E94FE008AEFF6
S11301D00E94FE008AEF0E94FE008AEF0E94FE0049
S11301E00895CF93DF93EC0181E00E945B0361E00B
S11301F0CE010E941604DF91CF910895282F30E09C
S1130200A8EEB3E00E94920423E030E040E050E026
S11302100E947004211531054105510549F0215012
S11302203109410951092115310541055105B9F734
S113023008958130C9F028F0823039F18330B1F16A
S113024046C0673008F045C0423008F044C08AB365
S113025050E09A0102C0220F331F6A95E2F7B901F8
S1130260682B6ABB81E008956730B8F54230B8F571
S113027087B350E09A0102C0220F331F6A95E2F758
S1130280B901682B67BB81E00895673050F54230AF
S113029050F584B350E09A0102C0220F331F6A95CF
S11302A0E2F7B901682B64BB81E008956730E8F494
S11302B04230E8F481B350E09A0102C0220F331FA8
S11302C06A95E2F7B901682B61BB81E008958DEF6F
S11302D008958EEF08958FEF08958EEF08958FEFB0
S11302E008958EEF08958FEF08958EEF08958FEFA0
S11302F00895813041F138F0823009F444C08330EC
S113030009F461C07FC0673008F07EC040FD0EC0B4
S11303102BB381E090E0AC0102C0440F551F6A95F5
S1130320E2F7BA01609562236BBB08952BB381E0B9
S113033090E0AC0102C0440F551F6A95E2F7BA0180
S1130340622B6BBB0895673008F060C040FD0EC09F
S113035028B381E090E0AC0102C0440F551F6A95B8
S1130360E2F7BA016095622368BB089528B381E07F
S113037090E0AC0102C0440F551F6A95E2F7BA0140
S1130380622B68BB0895673008F042C040FD0EC080
S113039025B381E090E0AC0102C0440F551F6A957B
S11303A0E2F7BA016095622365BB089525B381E045
S11303B090E0AC0102C0440F551F6A95E2F7BA0100
S11303C0622B65BB0895673028F540FD0EC022B34B
S11303D081E090E0AC0102C0440F551F6A95E2F73A
S11303E0BA016095622362BB089522B381E090E074
S11303F0AC0102C0440F551F6A95E2F7BA01622BA3
S113040062BB08958DEF08958EEF08958EEF0895E1
S11304108EEF08958EEF0895813091F028F08230A8
S1130420D9F0833029F130C0683080F529B330E049
S1130430C90102C0959587956A95E2F78170089580
S1130440683030F526B330E0C90102C09595879530
S11304506A95E2F7817008956830E0F423B330E0E0
S1130460C90102C0959587956A95E2F78170089550
S1130470683090F420B330E0C90102C095958795A7
S11304806A95E2F7817008958DEF08958EEF0895CF
S11304908EEF08958EEF08958EEF0895813041F028
S11304A028F0823039F0833039F008956BBB089519
S11304B068BB089565BB089562BB089541E060E0A0
S11304C082E00E94190141E061E082E00E9419018A
S11304D041E062E082E00E94190141E063E082E0D1
S11304E00E94190140E064E082E00E94190140E0AA
S11304F065E082E00E94190140E066E082E00E942B
S1130500190140E067E082E00E94190141E064E0E3
S113051082E00E94790141E065E082E00E94790175
S113052041E066E082E00E94790141E067E082E018
S11305300E94790140E060E082E00E94790140E09D
S113054061E082E00E94790140E062E082E00E9482
S1130550790140E063E082E00E94790108950F93FD
S11305601F93CF93DF93D0E010E0012FD130E1F05F
S113057030F0D23071F1D33009F440C08FC0412F34
S1130580612F82E00E94790141E061E082E00E94F3
S1130590790141E062E082E00E94790141E063E098
S11305A082E00E9479017AC041E0612F82E00E94DA
S11305B07901412F61E082E00E94790141E062E02B
S11305C082E00E94790141E063E082E00E947901C7
S11305D065C041E0612F82E00E94790141E061E061
S11305E082E00E947901412F62E082E00E94790159
S11305F041E063E082E00E94790150C041E0612F54
S113060082E00E94790141E061E082E00E94790188
S113061041E062E082E00E947901412F63E082E0E0
S11306200E9479013BC0C13059F028F0C23069F012
S1130630C33081F014C064E082E00E940C0210C058
S113064065E082E00E940C020BC066E082E00E943A
S11306500C0206C066E082E00E940C0201C0802FFA
S1130660811113C0D43068F4C33068F4EC2FF0E087
S113067084E0D89FE00DF11D1124EC59FF4F8081D7
S11306800FC080E00DC080E00BC0CF5FC43059F6CE
S1130690DF5FD43009F06ACF80E002C0C12FC3CF3E
S11306A0DF91CF911F910F91089540E062E080E0C7
S11306B00E9479010895CF93C82F40E060E080E064
S11306C00E94790140E061E080E00E94790181E0CC
S11306D00E94FE0041E062E080E00E94790181E036
S11306E00E94FE006C2F81E00E944E0281E00E9475
S11306F0FE000E94550381E00E94FE0041E062E09A
S113070080E00E9479016C2F6295607F81E00E94F5
S11307104E0281E00E94FE000E94550381E00E9487
S1130720FE00CF9108958AE00E94FE0041E062E05D
S113073080E00E94190181E00E94FE0041E061E036
S113074080E00E94190141E060E080E00E9419010C
S113075081E00E94FE0041E067E081E00E9419010F
S113076041E066E081E00E94190141E065E081E03A
S11307700E94190141E064E081E00E94190182E0D5
S11307800E945B0381E00E94FE0088E20E945B03FA
S113079081E00E94FE008CE00E945B0381E00E94E5
S11307A0FE0086E00E945B0381E00E94FE0081E07F
S11307B00E945B030895CF93C82F41E060E080E07E
S11307C00E94790140E061E080E00E94790181E0CB
S11307D00E94FE0041E062E080E00E94790181E035
S11307E00E94FE006C2F81E00E944E0281E00E9474
S11307F0FE000E94550381E00E94FE0041E062E099
S113080080E00E94790181E00E94FE006C2F6295D5
S1130810607F81E00E944E0281E00E94FE000E94FF
S1130820550381E00E94FE00CF9108950F931F931A
S1130830CF93DF93EC01062F10E00BC00E94DB0383
S1130840802F0E94FE001F5F103119F480EC0E947B
S11308505B03FE01E10FF11D80818111EFCFDF9178
S1130860CF911F910F9108950E9449008FE890E065
S11308700E94F1000E944E000E94A9000E9467009D
S11308800E94CD00F3CF1F920F920FB60F92112446
S11308902F933F934F935F936F937F938F939F9384
S11308A0AF93BF93EF93FF938091D4009091D500C1
S11308B0892B29F0E091D400F091D5000995FF919E
S11308C0EF91BF91AF919F918F917F916F915F91C4
S11308D04F913F912F910F900FBE0F901F9018953D
S11308E0A1E21A2EAA1BBB1BFD010DC0AA1FBB1F30
S11308F0EE1FFF1FA217B307E407F50720F0A21BA2
S1130900B30BE40BF50B661F771F881F991F1A940E
S113091069F760957095809590959B01AC01BD0138
S1130920CF010895A29FB001B39FC001A39F700D92
S1130930811D1124911DB29F700D811D1124911DE3
S113094008958F929F92AF92BF92CF92DF92EF92CF
S1130950FF92CF93DF93EC01688179818A819B8137
S1130960611571058105910521F464E279ED8BE54A
S113097097E02DE133EF41E050E00E942505490165
S11309805A019B01AC01A7EAB1E40E9444056B0142
S11309907C01ACEEB4EFA50194010E945205C60E91
S11309A0D71EE81EF91EF7FE06C081E0C81AD1085A
S11309B0E10880E8F80AC882D982EA82FB82C6018B
S11309C09F77DF91CF91FF90EF90DF90CF90BF9012
S11309D0AF909F908F9008950E94A104089580E69F
S11309E090E00E94A1040895A0E0B0E0809360002C
S11309F090936100A0936200B09363000895FC019A
S1130A0088279927E89421912032E9F3293010F0BE
S1130A102E30C8F32B3241F02D3239F4689404C0DF
S1130A200E941D05820F911D219120532A30C0F38D
S1130A301EF4909581959F4F08957AE0979F902D8D
S1130A40879F802D910D11240895052E97FB1EF488
S1130A5000940E943C0557FD07D00E94700407FCD7
S1130A6003D04EF40C943C05509540953095219557
S1130A703F4F4F4F5F4F08959095809570956195C6
S1130A807F4F8F4F9F4F08950E949204A59F900D12
S1130A90B49F900DA49F800D911D11240895B7FF5C
S1130AA00C9444050E944405821B930B0895F8940A
S1050AB0FFCF72
S1130AB2010000003738392F3435362A3132332DCC
S1130AC243303D2B596F75204469646E277420634B
S1130AD2686F6F73652061206E756D626572005078
S1130AE26C6561736520477565737320746865204E
S1130AF24E756D6265723A005468652076616C6960
S1130B02642072616E6765206973203120746F20DE
S1130B12313500596F7520576F6E00596F75204C2F
S1070B226F73740075
S9030000FC
