:100000000C942A000C943F000C943F000C943F0089
:100010000C943F000C943F000C943F000C943F0064
:100020000C943F000C943F000C943F000C943F0054
:100030000C943F000C943F000C943F000C943F0044
:100040000C943F000C943F000C943F000C943F0034
:100050000C943F0011241FBECFE5D8E0DEBFCDBF1A
:1000600010E0A0E6B0E0E8E3F5E002C005900D92F4
:10007000AC36B107D9F70E9441020C949A020C9455
:100080000000282F30E0A8EEB3E00E948B0223E0AE
:1000900030E040E050E00E94690221153105410541
:1000A000510549F021503109410951092115310506
:1000B00041055105B9F708958130C9F028F0823023
:1000C00039F18330B1F146C0683008F045C04230A4
:1000D00008F044C08AB350E09A0102C0220F331FD7
:1000E0006A95E2F7B901682B6ABB81E00895683030
:1000F000B8F54230B8F587B350E09A0102C0220F3C
:10010000331F6A95E2F7B901682B67BB81E0089558
:10011000683050F5423050F584B350E09A0102C087
:10012000220F331F6A95E2F7B901682B64BB81E0A7
:1001300008956830E8F44230E8F481B350E09A0161
:1001400002C0220F331F6A95E2F7B901682B61BB29
:1001500081E008958DEF08958EEF08958FEF089553
:100160008EEF08958FEF08958EEF08958FEF089525
:100170008EEF08958FEF0895813041F138F082308D
:1001800009F444C0833009F461C07FC0683008F0CE
:100190007EC040FD0EC02BB381E090E0AC0102C0F8
:1001A000440F551F6A95E2F7BA01609562236BBB55
:1001B00008952BB381E090E0AC0102C0440F551FBD
:1001C0006A95E2F7BA01622B6BBB0895683008F0BC
:1001D00060C040FD0EC028B381E090E0AC0102C0D9
:1001E000440F551F6A95E2F7BA016095622368BB18
:1001F000089528B381E090E0AC0102C0440F551F80
:100200006A95E2F7BA01622B68BB0895683008F07E
:1002100042C040FD0EC025B381E090E0AC0102C0B9
:10022000440F551F6A95E2F7BA016095622365BBDA
:10023000089525B381E090E0AC0102C0440F551F42
:100240006A95E2F7BA01622B65BB0895683028F51C
:1002500040FD0EC022B381E090E0AC0102C0440F2B
:10026000551F6A95E2F7BA016095622362BB089553
:1002700022B381E090E0AC0102C0440F551F6A95A3
:10028000E2F7BA01622B62BB08958DEF08958EEFFD
:1002900008958EEF08958EEF08958EEF08958130C2
:1002A00041F028F0823039F0833039F008956BBB8B
:1002B000089568BB089565BB089562BB089540E04A
:1002C00062E083E00E94BC000895CF93C82F40E015
:1002D00060E083E00E94BC0040E061E083E00E94B7
:1002E000BC0081E00E94410041E062E083E00E94A6
:1002F000BC0081E00E9441006C2F80E00E944F0111
:1003000081E00E9441000E945F0181E00E94410063
:1003100041E062E083E00E94BC006C2F6295607F48
:1003200080E00E944F0181E00E9441000E945F0135
:1003300081E00E944100CF9108958AE00E9441002F
:1003400041E062E083E00E945C0081E00E944100A5
:1003500041E061E083E00E945C0041E060E083E016
:100360000E945C0081E00E94410041E067E080E083
:100370000E945C0041E066E080E00E945C0041E099
:1003800065E080E00E945C0041E064E080E00E9463
:100390005C0082E00E94650181E00E94410088E2E9
:1003A0000E94650181E00E9441008CE00E9465018D
:1003B00081E00E94410086E00E94650181E00E9488
:1003C000410081E00E9465010895CF93C82F41E06C
:1003D00060E083E00E94BC0040E061E083E00E94B6
:1003E000BC0081E00E94410041E062E083E00E94A5
:1003F000BC0081E00E9441006C2F80E00E944F0110
:1004000081E00E9441000E945F0181E00E94410062
:1004100041E062E083E00E94BC0081E00E94410074
:100420006C2F6295607F80E00E944F0181E00E9406
:1004300041000E945F0181E00E944100CF91089538
:1004400041E065E081E00E945C0041E064E081E021
:100450000E945C0041E067E081E00E945C0040E0B7
:1004600066E081E00E945C0040E064E081E00E9480
:10047000BC001EB883E58DB908958FB9779BFECF78
:1004800008950E9420020E949D0110E000E014C027
:100490000E943D02C05ADF4F88810E94E5018AEF29
:1004A0000E9441008AEF0E9441008AEF0E944100B1
:1004B0008AEF0E9441001F5FC12FD0E0FE01E05A89
:1004C000FF4F80818111E4CF81E00E946501102FF0
:1004D000F3CFA1E21A2EAA1BBB1BFD010DC0AA1F60
:1004E000BB1FEE1FFF1FA217B307E407F50720F09D
:1004F000A21BB30BE40BF50B661F771F881F991F18
:100500001A9469F760957095809590959B01AC0160
:10051000BD01CF010895A29FB001B39FC001A39F69
:10052000700D811D1124911DB29F700D811D11242C
:08053000911D0895F894FFCF1E
:0C05380048656C6C6F2053504921000096
:00000001FF
