:100000000C942A000C943C000C943C000C943C0092
:100010000C943C000C943C000C943C000C943C0070
:100020000C943C000C943C000C943C000C943C0060
:100030000C943C000C943C000C943C000C943C0050
:100040000C943C000C943C000C943C000C943C0040
:100050000C943C0011241FBECFE5D8E0DEBFCDBF1D
:1000600021E0A0E6B0E001C01D92AF35B207E1F794
:100070000E9431010C94B4010C9400008130C9F04D
:1000800028F0823039F18330B1F146C0683008F091
:1000900045C0423008F044C08AB350E09A0102C023
:1000A000220F331F6A95E2F7B901682B6ABB81E022
:1000B00008956830B8F54230B8F587B350E09A013A
:1000C00002C0220F331F6A95E2F7B901682B67BBA4
:1000D00081E00895683050F5423050F584B350E027
:1000E0009A0102C0220F331F6A95E2F7B901682B0B
:1000F00064BB81E008956830E8F44230E8F481B3ED
:1001000050E09A0102C0220F331F6A95E2F7B9014D
:10011000682B61BB81E008958DEF08958EEF0895FF
:100120008FEF08958EEF08958FEF08958EEF089565
:100130008FEF08958EEF08958FEF0895813041F18C
:1001400038F0823009F444C0833009F461C07FC0C4
:10015000683008F07EC040FD0EC02BB381E090E017
:10016000AC0102C0440F551F6A95E2F7BA016095D1
:1001700062236BBB08952BB381E090E0AC0102C019
:10018000440F551F6A95E2F7BA01622B6BBB0895C5
:10019000683008F060C040FD0EC028B381E090E0F8
:1001A000AC0102C0440F551F6A95E2F7BA01609591
:1001B000622368BB089528B381E090E0AC0102C0DF
:1001C000440F551F6A95E2F7BA01622B68BB089588
:1001D000683008F042C040FD0EC025B381E090E0D9
:1001E000AC0102C0440F551F6A95E2F7BA01609551
:1001F000622365BB089525B381E090E0AC0102C0A5
:10020000440F551F6A95E2F7BA01622B65BB08954A
:10021000683028F540FD0EC022B381E090E0AC01CB
:1002200002C0440F551F6A95E2F7BA016095622338
:1002300062BB089522B381E090E0AC0102C0440F9C
:10024000551F6A95E2F7BA01622B62BB08958DEFE4
:1002500008958EEF08958EEF08958EEF08958EEF36
:1002600008950E944701E12C06E020E040E060E0B4
:1002700086E00E94860180E690E00E94680180E6A8
:1002800090E00E949F018DE00E949B01F4CF41E02D
:1002900065E081E00E943E0041E064E081E00E9470
:1002A0003E0041E067E081E00E943E0040E066E001
:1002B00081E00E943E0040E064E081E00E949E00F8
:1002C0001EB883E48DB90895779BFECF8FB1089552
:1002D000FF920F931F93CF93DF93EC01F12C8E01CC
:1002E0000F0D111D0E946401F8018083F394EF2D1E
:1002F000F0E03197EC0FFD1F80818111F0CF10826B
:10030000DF91CF911F910F91FF900895EF920F937E
:1003100082E08BB9EAB8539A549A80E880BD80B5E0
:10032000082B202B422B642B60BD10BC8CE089B9BC
:100330000F91EF9008955D9BFECF8CB908951F93A8
:10034000CF93DF93EC018881882351F010E00E9465
:100350009B011F5FFE01E10FF11D80818111F7CF2D
:0C036000DF91CF911F910895F894FFCF1A
:00000001FF
