S01B00005350495F636F6D6D756E69636174654D4355732E73726563D1
S11300000C942A000C9447000C9447000C9447006D
S11300100C9447000C9447000C9447000C94470040
S11300200C9447000C9447000C9447000C94470030
S11300300C9447000C9447000C9447000C94470020
S11300400C9447000C9447000C9447000C94470010
S11300500C94470011241FBECFE5D8E0DEBFCDBF0E
S113006010E0A0E6B0E0E8ECF3E002C005900D92E9
S1130070A437B107D9F720E0A4E7B0E001C01D928E
S1130080A937B207E1F70E9472010C94E2010C94C3
S113009000008130C9F028F0823039F18330B1F1A9
S11300A046C0683008F045C0423008F044C08AB306
S11300B050E09A0102C0220F331F6A95E2F7B9019A
S11300C0682B6ABB81E008956830B8F54230B8F512
S11300D087B350E09A0102C0220F331F6A95E2F7FA
S11300E0B901682B67BB81E00895683050F5423050
S11300F050F584B350E09A0102C0220F331F6A9571
S1130100E2F7B901682B64BB81E008956830E8F434
S11301104230E8F481B350E09A0102C0220F331F49
S11301206A95E2F7B901682B61BB81E008958DEF10
S113013008958EEF08958FEF08958EEF08958FEF51
S113014008958EEF08958FEF08958EEF08958FEF41
S11301500895813041F138F0823009F444C083308D
S113016009F461C07FC0683008F07EC040FD0EC055
S11301702BB381E090E0AC0102C0440F551F6A9597
S1130180E2F7BA01609562236BBB08952BB381E05B
S113019090E0AC0102C0440F551F6A95E2F7BA0122
S11301A0622B6BBB0895683008F060C040FD0EC040
S11301B028B381E090E0AC0102C0440F551F6A955A
S11301C0E2F7BA016095622368BB089528B381E021
S11301D090E0AC0102C0440F551F6A95E2F7BA01E2
S11301E0622B68BB0895683008F042C040FD0EC021
S11301F025B381E090E0AC0102C0440F551F6A951D
S1130200E2F7BA016095622365BB089525B381E0E6
S113021090E0AC0102C0440F551F6A95E2F7BA01A1
S1130220622B65BB0895683028F540FD0EC022B3EB
S113023081E090E0AC0102C0440F551F6A95E2F7DB
S1130240BA016095622362BB089522B381E090E015
S1130250AC0102C0440F551F6A95E2F7BA01622B44
S113026062BB08958DEF08958EEF08958EEF089583
S11302708EEF08958EEF089541E065E081E00E94DD
S1130280490041E064E081E00E94490041E067E008
S113029081E00E94490040E066E081E00E9449005C
S11302A040E064E081E00E94A9001EB883E58DB9B6
S11302B008958FB9779BFECF08951F93CF93DF9353
S11302C0EC018881882351F010E00E9459011F5FDE
S11302D0FE01E10FF11D80818111F7CFDF91CF91F4
S11302E01F9108950E943C01E12C06E020E040E0CB
S11302F060E086E00E9498011092740010927500EC
S11303001092760010927700109278001092790083
S113031084E790E00E94C40184E790E00E945D01BC
S113032080E00E94590180E690E00E94B101F0CF84
S1130330EF920F9382E08BB9EAB8539A549A80E80B
S113034080BD80B5082B202B422B642B60BD10BCD4
S11303508CE089B90F91EF9008955D9BFECF8CB925
S11303600895CF93DF93EC018881882331F021969F
S11303700E94AD0189918111FBCFDF91CF91089546
S11303805F9BFECF8CB10895FF920F931F93CF9381
S1130390DF93EC01F12C8E010F0D111D0E94C001A1
S11303A0F8018083F394EF2DF0E03197EC0FFD1FFB
S11303B080818D3081F71082DF91CF911F910F9151
S10B03C0FF900895F894FFCFAB
S11303C80D53656E74205375636365737366756C3A
S10703D86C790D002B
S9030000FC
