:100000000C942A000C9434000C9434000C943400AA
:100010000C9434000C9434000C9434000C94340090
:100020000C9434000C9434000C9434000C94340080
:100030000C9434000C9434000C9434000C94340070
:100040000C9434000C9434000C9434000C94340060
:100050000C94340011241FBECFE5D8E0DEBFCDBF25
:100060000E9462020C94AB020C940000282F30E036
:10007000A8EEB3E00E949C0223E030E040E050E0B4
:100080000E947A02211531054105510549F02150A0
:100090003109410951092115310541055105B9F7CA
:1000A00008958130C9F028F0823039F18330B1F100
:1000B00046C0683008F045C0423008F044C08AB3FA
:1000C00050E09A0102C0220F331F6A95E2F7B9018E
:1000D000682B6ABB81E008956830B8F54230B8F506
:1000E00087B350E09A0102C0220F331F6A95E2F7EE
:1000F000B901682B67BB81E00895683050F5423044
:1001000050F584B350E09A0102C0220F331F6A9564
:10011000E2F7B901682B64BB81E008956830E8F428
:100120004230E8F481B350E09A0102C0220F331F3D
:100130006A95E2F7B901682B61BB81E008958DEF04
:1001400008958EEF08958FEF08958EEF08958FEF45
:1001500008958EEF08958FEF08958EEF08958FEF35
:100160000895813041F138F0823009F444C0833081
:1001700009F461C07FC0683008F07EC040FD0EC049
:100180002BB381E090E0AC0102C0440F551F6A958B
:10019000E2F7BA01609562236BBB08952BB381E04F
:1001A00090E0AC0102C0440F551F6A95E2F7BA0116
:1001B000622B6BBB0895683008F060C040FD0EC034
:1001C00028B381E090E0AC0102C0440F551F6A954E
:1001D000E2F7BA016095622368BB089528B381E015
:1001E00090E0AC0102C0440F551F6A95E2F7BA01D6
:1001F000622B68BB0895683008F042C040FD0EC015
:1002000025B381E090E0AC0102C0440F551F6A9510
:10021000E2F7BA016095622365BB089525B381E0DA
:1002200090E0AC0102C0440F551F6A95E2F7BA0195
:10023000622B65BB0895683028F540FD0EC022B3DF
:1002400081E090E0AC0102C0440F551F6A95E2F7CF
:10025000BA016095622362BB089522B381E090E009
:10026000AC0102C0440F551F6A95E2F7BA01622B38
:1002700062BB08958DEF08958EEF08958EEF089577
:100280008EEF08958EEF0895813041F028F082308E
:1002900039F0833039F008956BBB089568BB089539
:1002A00065BB089562BB0895813079F028F08230F3
:1002B000A9F08330E1F00895613019F48FEF8ABB23
:1002C000089561111CC01ABA0895613019F48FEFB6
:1002D00087BB0895611113C017BA0895613019F4EE
:1002E0008FEF84BB089561110AC014BA089561307C
:1002F00019F48FEF81BB0895611101C011BA0895FF
:1003000040E062E083E00E94B1000895CF93C82FDF
:1003100040E060E083E00E94B10040E061E083E003
:100320000E94B10081E00E94360041E062E083E07B
:100330000E94B10081E00E9436006C2F80E00E9494
:10034000440181E00E9436000E94800181E00E9409
:10035000360041E062E083E00E94B1006C2F6295BC
:10036000607F80E00E94440181E00E9436000E948C
:10037000800181E00E943600CF9108958AE00E94BA
:10038000360041E062E083E00E94510081E00E947B
:10039000360041E061E083E00E94510041E060E00E
:1003A00083E00E94510081E00E94360041E067E056
:1003B00080E00E94510041E066E080E00E94510030
:1003C00041E065E080E00E94510041E064E080E0AF
:1003D0000E94510082E00E94860181E00E94360066
:1003E00088E20E94860181E00E9436008CE00E9433
:1003F000860181E00E94360086E00E94860181E04D
:100400000E94360081E00E9486010895CF93C82F94
:1004100041E060E083E00E94B10040E061E083E001
:100420000E94B10081E00E94360041E062E083E07A
:100430000E94B10081E00E9436006C2F80E00E9493
:10044000440181E00E9436000E94800181E00E9408
:10045000360041E062E083E00E94B10081E00E944A
:1004600036006C2F6295607F80E00E94440181E03D
:100470000E9436000E94800181E00E943600CF91E8
:10048000089541E065E081E00E94510041E064E0B0
:1004900081E00E94510041E067E081E00E9451004C
:1004A00040E066E081E00E94510040E064E081E0CD
:1004B0000E94B1001EB883E48DB90895779BFECFEA
:1004C0008FB1089561E082E00E9454010E94BE0154
:1004D0000E9441020E945E02C82F682F82E00E94A3
:1004E00044018C2F0E940602C132A1F781E00E94D4
:1004F0008601F0CFA1E21A2EAA1BBB1BFD010DC085
:10050000AA1FBB1FEE1FFF1FA217B307E407F507C3
:1005100020F0A21BB30BE40BF50B661F771F881F9F
:10052000991F1A9469F760957095809590959B0135
:10053000AC01BD01CF010895A29FB001B39FC001DE
:10054000A39F700D811D1124911DB29F700D811DFF
:0A0550001124911D0895F894FFCFC7
:00000001FF
